:020000040800F2
:1000000038470020D50200089B2B0008F5030008A4
:10001000992B000865200008B92E00080000000098
:10002000000000000000000000000000E7020008DF
:100030006720000800000000430300089D2B000813
:10004000EF020008EF020008EF020008EF020008CC
:10005000EF020008EF020008EF020008EF020008BC
:10006000EF020008EF020008EF020008EF020008AC
:10007000EF020008EF020008EF020008EF0200089C
:10008000EF020008EF020008EF020008EF0200088C
:10009000EF020008EF020008EF020008EF0200087C
:1000A000EF020008EF020008EF020008EF0200086C
:1000B000EF020008EF020008EF020008EF0200085C
:1000C000EF020008EF020008EF020008EF0200084C
:1000D000EF020008512E0008EF020008EF020008AE
:1000E000EF020008EF020008EF020008EF0200082C
:1000F000EF020008EF020008EF020008EF0200081C
:10010000EF020008EF020008EF020008EF0200080B
:10011000EF020008EF020008EF020008EF020008FB
:10012000EF020008EF020008EF020008EF020008EB
:10013000EF020008EF020008EF020008EF020008DB
:10014000EF020008EF020008EF020008EF020008CB
:10015000EF020008EF020008EF020008EF020008BB
:10016000EF020008EF020008EF020008EF020008AB
:10017000EF020008EF020008EF0200080000000094
:10018000EF020008EF02000800F002F800F092F819
:100190000AA090E8000C82448344AAF10107DA45E2
:1001A00001D100F087F8AFF2090EBAE80F0013F0A2
:1001B000010F18BFFB1A43F001031847BC70000081
:1001C000DC700000103A24BF78C878C1FAD8520712
:1001D00024BF30C830C144BF04680C6070470000C1
:1001E0000023002400250026103A28BF78C1FBD840
:1001F000520728BF30C148BF0B6070476E2900F01E
:100200009783702900F0E184662906F0F281652960
:1002100006F0EF81672906F0EC81612906F0EB8199
:1002200003681B0A28BF41F08001692900F044835C
:10023000642900F04183752900F03E836F2900F0A6
:100240006E84782900F0AD84E92900F00984E4295E
:1002500000F00684F52900F00384EF2900F06B8498
:10026000F82900F0AC840368DB0928BF41F0800165
:10027000632901F0AF81732901F0B481E32901F012
:10028000BF81F32901F0C481002070471FB506F03B
:10029000ABF901F00FFA04000020002106F08EF9FE
:1002A000401C60600020002106F072F9E0601FBD74
:1002B00010B510BD01F0D0F91146FFF7E7FF01F0CE
:1002C000CCFE01F0ADFA03B4FFF7F2FF03BC01F07E
:1002D000F5FA00000948804709480047FEE7FEE7B5
:1002E000FEE7FEE7FEE7FEE7FEE7FEE7FEE7FEE7E6
:1002F00004480549054A064B70470000BD2C00081C
:100300008901000838410020384700203843002088
:1003100038430020EFF3108072B6704780F31088E6
:100320007047424A1368012B04D04FF00103136059
:100330003F4A10603F4A11603F484FF080510160D2
:100340007047EFF3108272B63848016851B34FF02E
:10035000000101603648016891B1EFF309811EF098
:10036000100F08BF21ED108B21E9F00F4FF00004B2
:100370001EF0100F08BF012441F8044D0068016011
:100380002C490968096808C9B1E8F00F002B18BFAB
:10039000B1EC108B81F309884EF0100E002B18BFC2
:1003A0002EF0100E82F310884EF0040E7047214993
:1003B0000860EFF3148222F0040282F314881C49CF
:1003C0004FF00000086019494FF0010008601B4819
:1003D0001B49D0F8002041EA0201016016484FF0A5
:1003E0008051016017480068006880F3088861B692
:1003F00062B670471EF0040F0CBFEFF30880EFF3F6
:10040000098020E9F00F40F804ED40F804ED1EF0FB
:10041000040F0CBF80F3088880F3098800B504F04E
:10042000D5FA5DF804EB4EF0040E7047CC000020C6
:10043000C4000020C800002004ED00E020ED00E032
:100440000000FFFF08ED00E053EA020C00F06980B5
:100450002DE9F04B4FF00006002B1FBFB3FA83F5D8
:1004600003FA05F424FA05F65E4012BF1643B2FA09
:1004700082F502FA05F4C5F120051EBF22FA05FC3B
:1004800044EA0C04203556EA044C4FEA144418BFE1
:10049000641C4FF000084FF00009904271EB030C10
:1004A00039D3002919BFB1FA81F701FA07F6B0FA7A
:1004B00080F700FA07F6C7F120071EBF20FA07FCF5
:1004C00046EA0C062037B6FBF4FCA7EB0507103F05
:1004D00007F01F0BCBF120060CFA0BFB2CFA06F6EB
:1004E00044BFB3460026202FA4BF5E464FF0000B4A
:1004F0005BEA060C08BF4FF0010B19EB0B09ABFBD5
:10050000027C48EB0608C01B06FB02CC0BFB03CCAD
:1005100071EB0C01C1E70B46024641464846BDE877
:10052000F08B13B54FF000004FF00001AFF30080E7
:10053000BDE81C40704700007CB51D4616460C0007
:10054000009001D02044401E074B7B442A46694658
:100550000190304600F005FA05461CB100206946BE
:1005600000F012FA28467CBD4504000040EA010371
:10057000024630B59B0710D14FF0013400E008C2AD
:1005800008C91D1B9D4315EAC41FF8D013F0FF01D5
:1005900002F8011B0DD01B0AF8E711F8013B002BF4
:1005A00002F8013B05D011F8013B002B02F8013B9A
:1005B000F3D130BD10B5431C02E010F8011B71B13E
:1005C0008107FAD14FF0013202C88C1A8C4314EA29
:1005D000C211F9D0C01A0A0603D0C01E10BDC01A3D
:1005E00010BD0A0401D0801E10BD0902FCD0401EBF
:1005F00010BD40EA010370B59B072ED14FF00136C4
:10060000042A2AD308C810C99D1B9D43121F15EA4E
:10061000C61517D0D8B2E1B2401A50EA056110D120
:1006200098B2A1B2401A50EA05410AD123F07F40A6
:1006300024F07F41401A50EA052102D1180EA0EBA8
:10064000146070BDA342DBD018BA21BA884201D928
:10065000012070BD4FF0FF3070BD0AB9002070BDA1
:1006600010F8013B11F8014B63B1A3420AD1521EAD
:1006700008D010F8013B11F8014B1BB1A34201D186
:10068000521EEDD1181B70BD421E12F8013F002B07
:10069000FBD111F8013B002B02F8013BF9D1704767
:1006A00010B5203AC0F00B80B1E81850203AA0E80D
:1006B0001850B1E81850A0E81850BFF4F5AF5FEA41
:1006C000027C24BFB1E81850A0E8185044BF18C9F4
:1006D00018C0BDE810405FEA827C24BF51F8043B9B
:1006E00040F8043B08BF7047D20728BF31F8023BEF
:1006F00048BF11F8012B28BF20F8023B48BF00F883
:10070000012B70474FF000020429C0F0128010F056
:10071000030C00F01B80CCF1040CBCF1020F18BFDD
:1007200000F8012BA8BF20F8022BA1EB0C0100F070
:100730000DB85FEAC17C24BF00F8012B00F8012B43
:1007400048BF00F8012B70474FF0000200B5134678
:1007500094469646203922BFA0E80C50A0E80C50E1
:10076000B1F12001BFF4F7AF090728BFA0E80C5092
:1007700048BF0CC05DF804EB890028BF40F8042B8B
:1007800008BF704748BF20F8022B11F0804F18BFF8
:1007900000F8012B704710B5044610F0030F08BF96
:1007A00011F0030F40F015804FF0013E121FC0F210
:1007B0000E8051F8043BA3EB0E0C2CEA030C1CEA50
:1007C000CE1C08BF40F8043BF0D0A1F1040102F1B7
:1007D0000402521E08DB11F8013B002B00F8013B1C
:1007E000F7D11146FFF78EFF204610BD70477047C6
:1007F000704770B5044685690068C10601D530268A
:1008000000E02026C00707D070BDD4E901213046A2
:100810009047206A401C20626D1EF6D570BD70B5F1
:10082000044685690078C00707D170BDD4E901216D
:1008300020209047206A401C20626D1EF6D570BDB6
:1008400009684A0501D540B27047C905FCD500B218
:10085000704709684A0501D5C0B27047C905FCD583
:1008600080B2704770B50C460546012A05D028783D
:10087000800600D5EA69002302E0012305E05B1C45
:10088000934202D2E05C0028F9D1A869E618C01AA8
:10089000A861286A184428622846FFF7AAFF04E0E6
:1008A000D5E9012114F8010B9047B442F8D328464A
:1008B000FFF7B5FF70BD00002DE9F04106460024AA
:1008C00010687529314616A510D0FFF7B9FF00282A
:1008D00002DA404213A507E031688A0701D512A564
:1008E00002E0490704D511A5012401E0FFF7B1FF9B
:1008F00000210A2206F1240709E0B0FBF2FCB0FB5C
:10090000F2F302FB1C00303078541846491C0028D2
:10091000F3D123462A463046BDE8F04100F069BADB
:10092000000000002D0000002B000000200000004F
:1009300011680268006A530501D508700AE0D30502
:1009400001D5088006E0130603D5C217C1E90002ED
:1009500000E008600120704701694A1C02610878C4
:10096000704700B58FB0CDE90131002105910549EF
:100970007944CDE903101146684600F031F90FB013
:1009800000BD0000E5FFFFFF0A6802F8010B0A60E6
:100990007047D1E900239A4202D2531C0B601070B9
:1009A000704700002DE9FF5F15468A460446DFF8D0
:1009B000AC80F8440027D8E900103E46CDE900108D
:1009C00010E03AF816106A4602A800F025FE411C15
:1009D00007D02178890603D5E269391891420DD8EC
:1009E0000744761C2078800602D5E069B84205DD10
:1009F000AE42E6DB3AF816000028E2D1A069C01B3F
:100A0000A0612046FFF7F5FED8E90010CDE90010FF
:100A1000002017E03AF818106A4602A800F0FCFD22
:100A2000B0F1FF3F81460BD000250DF1080B05E02A
:100A3000D4E901211BF8050090476D1C4D45F7D303
:100A400008F10100B0428046E4DB206A38442062AD
:100A50002046FFF7E4FEBDE8FF9F0000FE610000B6
:100A60002DE9F0418046D21D22F007020025D2E98F
:100A70000002F52915A614D0011E72F1000106DA54
:100A80000023D0EB030063EB020211A608E0D8F8C4
:100A900000108B0701D50FA602E0490701D50EA66D
:100AA00001251146002408F1240704E000F05CF958
:100AB00030323A55641C50EA0102F7D12B463246D7
:100AC00021464046BDE8F04100F093B90000000027
:100AD0002D0000002B0000002000000030B4002199
:100AE00000F1240408E002F00705D208303542EA9C
:100AF0004372DB086554491C52EA0305F3D10468CC
:100B0000002310A2250707D5A40600D421B1C4698B
:100B100001230DA2641EC46130BC00F06AB910B597
:100B2000044621461068FFF794FE02462046BDE8C1
:100B300010400023D2E7D21D22F00701D1E90023A3
:100B4000CCE700000000000030000000F0B40D46CB
:100B50000188090502D5214C7C4402E01F4C7C44ED
:100B60000E34002100F1240608E002F00F071209FC
:100B7000E75D42EA03721B097754491C52EA0307F6
:100B8000F3D102780023120704D5702D06D009B1E5
:100B9000022311342246F0BC00F02BB9012310349B
:100BA000F8E770B504460D4621461068FFF751FE80
:100BB000024629462046BDE870400023C6E7D21D04
:100BC00022F00703D3E90023C0E70368126843F06B
:100BD000200303600823C3610023B7E760600000BF
:100BE0002DE9F05F894604464FF0000ADFF874B142
:100BF000FB44C0F820A02046E1688847002874D054
:100C0000252806D0D4E901219047206A401C2062A3
:100C1000F1E700265F462046E16888472028054620
:100C200007DB312D05D2781910F8200C08B10643E6
:100C3000F1E7B00701D526F00406C4F81CA0002790
:100C4000C4F818A02A2D09D0284602F081F938B33B
:100C500004EB8708303DC8F8185019E059F8041B18
:100C6000204604EB87029161E1688847012F054621
:100C700018D1E069002820DA26F020061DE0D8F817
:100C8000180000EB800005EB40003038C8F8180071
:100C90002046E1688847054602F05AF90028EED15F
:100CA000012F0AD02E2D08D12046E16888477F1CED
:100CB0000546022F46F02006C4DBA069002803DAAF
:100CC000404246F00106A061F00701D026F0100670
:100CD0006C2D0BD0682D09D04C2D39D06A2D35D014
:100CE000742D35D07A2D33D016E038E0E1682F46E8
:100CF00020468847B842054609D16C2F26D04FF4CC
:100D00008060E168064320468847054604E06C2F72
:100D10001AD04FF4807006430DB3A5F14100192895
:100D200002D8203546F400664A4629462046266009
:100D30004E46FFF763FA80B101280BD0F61D26F06E
:100D4000070000F1080956E74020E4E78020D8E7D3
:100D50000020D6E706F104094DE7284652E7206A4D
:100D6000BDE8F09FF05F000030B5B0F10A024FEA35
:100D7000900E71F100034EEA817EB0EB0E0061EB44
:100D800091014FEA101E4EEA017E10EB0E0041EB7E
:100D900011114FEA102E4EEA016E10EB0E0041EBDE
:100DA00011214FEA104E4EEA014E10EB0E0041EBBE
:100DB0001141401841F100014FEAD00040EA417072
:100DC0004FEAD10110EB80054FEA810444EA9074A8
:100DD00044EB01046D1944EB0404521BA3414FF092
:100DE000000348BF0A3200D530BD401C41F100016C
:100DF00030BD2DE9F0470D4699469246044600F174
:100E000024080168880604D5E06921F010012160FA
:100E100000E00120A84201DD471B00E00027A16996
:100E20007A1902EB0900081AA0612078C00602D4E2
:100E30002046FFF7DEFC002608E0D4E901211AF87D
:100E400006009047206A401C761C20624E45F4DB69
:100E50002078C0060AD52046FFF7CBFC06E0D4E98F
:100E6000012130209047206A401C2062381EA7F1E3
:100E70000107F4DC07E0D4E9012118F805009047E8
:100E8000206A401C2062281EA5F10105F3DC2046E3
:100E9000FFF7C5FC2078000602D50220BDE8F087E8
:100EA0000120FBE770472DE9FF4F0C461E464FF02F
:100EB000FF378BB0D2E90001DDF860800A908A46E6
:100EC000C1F30A5505B93D46002108464FF0000020
:100ED000BAF1000F00F4400005DA00EB80004FF497
:100EE000400101EA50004FEA9059B9F1010F00DDCD
:100EF000B9460A9850EA4A000ED044F61050A5F2BE
:100F0000FF3545432F14B8F1000F1ED07542291E3E
:100F10001EDDC9F100021CE0B8F1010F4FF0000026
:100F200001D0302103E0F24305E02154401CB042DF
:100F3000FBDB30460022002121540B99C1F80880C8
:100F4000C1E900200FB0BDE8F08FBD1B6D1CDEE7CE
:100F50004A4600DA694206A800F0F0FB06AB93E8C7
:100F6000070003AB83E8070050460A9900F0ADFC88
:100F70008DE80700A0F500501F3800900398002D61
:100F80000ADD42F21F014A460844002303A90390E8
:100F9000684600F016FF09E0A0F500504A461F38E9
:100FA000002303A90390684600F020FF8DE80700A6
:100FB0000004000C03D04FF0FF30410800E0104661
:100FC000B8F1000F03D00022009215461EE0751EF6
:100FD00005D4FFF7C9FE303262556D1EF9D5B34610
:100FE0000122084302D000227F1C04E02078302830
:100FF00001D100227F1E002A099784D01DE0112D07
:1010000007DAFFF7B1FE303262556D1C50EA01027B
:10101000F5D1084302D00098C8B10EE00021681E47
:1010200005E0235C625C63542254401E491C8142EB
:10103000F7DBAB46A81B401E0990002004F80B000C
:101040000B98099AC0F80880C0E9002B7AE71126AE
:101050004FF0000857E72DE9F04F88460446D21DAF
:1010600022F0070191B0D1E90001CDE90A0101F0B8
:1010700024FF02460B98C00F01D02D2007E0206806
:10108000810701D52B2002E0202101EAC000032ABC
:10109000099001D0072A05DB03464146204600F0AF
:1010A0000DFB0BE12078800601D5E06900E0062009
:1010B000B8F1650F814606D0B8F1660F18D0B8F1C7
:1010C000670F70D131E00020B9F1110F009001DB02
:1010D000112301E009F101030AAA01A90CA8FFF7F5
:1010E000E2FEDDE90C70002609F10105834647E0C8
:1010F00001204B4600904FF000470AAA01A90CA816
:10110000FFF7D1FEDDE90DB00C995D46002610B960
:1011100009F101000D18B9EB050003D4C0F1FF3649
:1011200009F10105A5EB09002BE0B9F1010F01DA86
:101130004FF001090020B9F1110F0090484601DD80
:10114000112300E003460AAA01A90CA8FFF7ABFE91
:10115000DDE90C704D4600268346207800070AD44E
:10116000AB4500DA5D4601A8012D04DD411911F8F7
:10117000011C302907D04F4502DA17F1040F04DAB9
:10118000012082460FE06D1EEEE7002F02DCED1B12
:101190003E4403E0781CA84200DD7D1CB81B00F132
:1011A000010A4FF000472078000703D4AA4501DB6D
:1011B0004FF0FF3A0021B7F1004F0DF143088DF8D1
:1011C000431024D002202B23002F01DA7F422D234D
:1011D0000A21021EA0F1010000DC5FB197FBF1FCC7
:1011E00097FBF1F201FB1C7C17460CF1300C08F860
:1011F00001CDEEE7A8F1010003702188090501D5B2
:10120000452100E06521A0F1010800F8011C0998C2
:101210000FA9A1EB0807FF1D00B10120411901EB47
:10122000EA70A1693844081A401EA0612078C006FF
:1012300002D42046FFF7DDFA099828B1D4E901214C
:101240009047206A401C20622078C00622D52046A4
:10125000FFF7CFFA1EE0002E04DBB34502DD01A844
:10126000805D00E03020D4E901219047206A401CD5
:101270002062761CAAF101005FEA000A0AD100F0A0
:1012800019FAC0680168405CD4E901219047206ADE
:10129000401C2062281EA5F10105DCDC07E0D4E932
:1012A000012118F8010B9047206A401C2062381E6B
:1012B000A7F10107F3DC2046FFF7B1FA032011B0D4
:1012C00041E600002DE9F04F04460D46D21D22F004
:1012D000070089B0D0E900974846394601F0EDFD96
:1012E0000246F80F01D02D2307E02068810701D5C1
:1012F0002B2302E0202101EAC0038DF820300BB13E
:10130000012000E00020032A824601D0072A04DBE6
:101310002946204600F0D2F93FE12078800601D42A
:101320000D2500E0E569C7F30A560D2D49DA0021C5
:101330004FEA175B08464FF00000002F00F4400012
:1013400007DA00EB80004FF4400100EBD07001EAB7
:1013500060008115012901DD4FF0FF3100224FEAC5
:10136000850CBCF1180F06D31346ACF118004FF0F2
:101370008052C24003E04FF4801323FA0CF30CF1C7
:101380000C0CBCF1200F04D3ACF1200C09FA0CF0CA
:1013900001E007FA0CF000294FF0004801DD18B910
:1013A0000FE00ED140450CD319EB02095F4121B982
:1013B000404502D19F4329EA0209BBEB175F00D0E9
:1013C000761C2088000502D57B48784402E07A48E4
:1013D0007844193808AA302302F80A30037C0AF14D
:1013E0000101002E0AF1020A53546A4602DC4FF052
:1013F000300101E04FF031014FF001088DF800108D
:1014000002D0A6F2FF3603E059EA470100D06B4E46
:10141000002D02DC2178090704D54FF002082E21A7
:101420008DF80110C44600210BE0C7F303433F01D0
:10143000C35C491C6D1E02F80830052908F101083B
:1014400001DA002DF1DC00210CE000EB1973491CDE
:101450001B786D1E082902F808304FEA091908F1B7
:10146000010801DA002DF0DC21688B0602D516E0B8
:10147000A8F10108E04505DD02EB080313F8013C83
:10148000302BF5D0B8F1000F09DD02EB080313F89B
:10149000013C2E2B03D1090701D4A8F10108002D2E
:1014A00005DD3E2102F808106D1E08F10108407CA0
:1014B000002E02F8080008F1010804DA2D20764217
:1014C00002F8080002E02B2002F808000A214FF47D
:1014D0007A70864208F101080BDB96FBF0F330339B
:1014E00002F8083096FBF0F308F1010800FB1366E0
:1014F00001E0642E0CDB642096FBF0F3303302F83D
:10150000083096FBF0F308F1010800FB136601E0D8
:101510000A2E06DB96FBF1F0303002F8080008F1E5
:10152000010896FBF1F001FB1060303002F8080072
:10153000A16908F1010808EB050202EB0A00081A8C
:10154000A0612078C00602D42046FFF752F9216A34
:1015500008AE01EB0A00206204E0D4E9012116F88C
:10156000010B9047BAF1010AF7D22078C00602D5E4
:101570002046FFF73EF96E4609E016F8010B3E28BB
:101580000FD0D4E901219047206A401C2062B8F1B5
:101590000108F2D22046FFF742F909B00320BDE866
:1015A000F08F206A2844206203E0D4E90121302032
:1015B00090476D1EEBD3F8E73A58000002FCFFFF9E
:1015C00010B5436913B1AFF3008001E0FFF74AF9AA
:1015D000012010BD127800F124010A7000224A7027
:1015E0000122EDE711684FF0FF32E9E710B54369DA
:1015F00013B1AFF3008001E0FFF7D4F9012010BD73
:10160000128800F1240182840022C2840122EDE7C5
:1016100011684FF0FF32E9E770B516460C460546F3
:1016200000F040F8036893F80101012806D0FF2C70
:101630000FD8185D68B101202C7070BDD3F8070178
:101640003246214603F2071303442846BDE87040A2
:1016500018474FF0FF3070BD754600F0EBF8AE460E
:1016600005006946534620F00700854618B020B5AE
:10167000FEF73EFEBDE820404FF000064FF00007A9
:101680004FF000084FF0000B21F00701AC46ACE82A
:10169000C009ACE8C009ACE8C009ACE8C0098D4697
:1016A0007047000010B500F005F8001D10BD00BF28
:1016B0000D4F000000487047F84000202DE9F04130
:1016C0001F46044603260168072A01F4006004DB74
:1016D00008B116A505E016A503E008B115A500E0C0
:1016E00015A521F010002060A069C01EA0610FB1F7
:1016F000401EA0612046FFF77CF84FB1D4E90121DC
:1017000038469047206A401C2062C01C206206E0D8
:10171000206AFAE7D4E9012115F8010B9047761EFB
:10172000F8D22046FFF77BF8BDE8F0814E414E002D
:101730006E616E00494E4600696E66002DE9F04705
:10174000814616468AB0354878440DC88DE80D00AC
:1017500032487844801C03AC0DC884E80D0041F683
:101760009B300844372190FBF1F290FBF1F5A5F195
:10177000800501FB12041B3C02D56442012000E0FD
:101780000020DFF898A080460027FA44AAF1BE0A9C
:101790000EE0E0070AD03246684607EB4701012316
:1017A0000AEB810100F022FB8DE8070064107F1C2A
:1017B000002CEED1194F7F44AE3F19E0E80715D059
:1017C00007EB04100DF1180A90E80E008AE80E00ED
:1017D000C068F04201D1981908903246012306A949
:1017E00003A800F003FB03AB83E807006D10641C43
:1017F000002DE3D14FF0010332466946B8F1000FE6
:1018000003A802D000F0DDFA01E000F0EFFAC9E928
:101810000001C9F808200AB0BDE8F0874C55000067
:1018200010B50446AFF300802046BDE81040FEF737
:101830004ABD000000487047D84000204FF0013CEE
:1018400050F8042B51F8043B9A4221D1A2EB0C032F
:10185000934313EACC1317D150F8042B51F8043BEF
:101860009A4215D1A2EB0C03934313EACC130BD18C
:1018700050F8042B51F8043B9A4209D1A2EB0C0317
:10188000934313EACC13DBD04FF00000704700BF46
:10189000D01A01BAB1FA81F101F0180122FA01F06F
:1018A000CB40C1F12001DBB2C0B2C01A2CFA01F367
:1018B000D11A914311EAC311E6D1704701491820AA
:1018C000ABBEFEE72600020070475FEA400C08BF8F
:1018D00091F0000F4FEA8C234FEAC12243EA5151A5
:1018E0004FEA1C5018BF00F5F0404FEA300018BF17
:1018F00041F000415FEA6C5C00F02980BCF1FF3FE1
:1019000008BF40F080407047130C06BF12044FF030
:10191000100C4FF0000C130E04BF12020CF1080C57
:10192000130F04BF12010CF1040C930F04BF9200BB
:101930000CF1020CD30F04BF52000CF1010C114644
:101940004FF00002A0F11F00A0EB0C00704711F057
:10195000004F08BF704731F000413FF4D5AF0B0C8A
:1019600006BF09044FF0100C4FF0000C0B0E04BF23
:1019700009020CF1080C0B0F04BF09010CF1040C57
:101980008B0F04BF89000CF1020CCB0F04BF490080
:101990000CF1010CCCF12003A0EB0C0022FA03F3B4
:1019A00002FA0CF241EA030100F10100704720F055
:1019B0007F4C80EA030023F07F47ACEB070303F57D
:1019C0007C5300F0004003F1FF032DE980494FEA0A
:1019D000154B09B44FEA144325EA0B4E24EA034899
:1019E0000FF2042606EB132749083E785FEA32021D
:1019F00003FB0667C7F5000707FB06F64FEA5437F7
:101A00004FEAD64606F1020607FB066CCCF1005CF5
:101A10004FEA1C472CEA074C07FB06F40CFB06F5C3
:101A200004EB15464FEA961634BF00204FF00040F5
:101A30004FEAD13706FB07FC4FEA1C4C0CFB0BF7B7
:101A4000D21B03FB0CF761EB07010CFB0EF7B0EBAD
:101A5000074072EB17420CFB08F734BFA2EB0742BA
:101A6000B2EB074261EB17414FEA0C444FEA910792
:101A700006FB07FC4FEA1C4C0CFB0BF7B0EBC74016
:101A800072EB573203FB0CF734BFA2EBC742B2EB49
:101A9000C74261EB57310CFB0EF7B0EBC70072EB9E
:101AA00057720CFB08F734BFA2EBC702B2EBC702B8
:101AB00061EB5771039F4FEA816141EA921104EB98
:101AC000CC044FEAD1374FEA826206FB07FC42EAB8
:101AD00090124FEA80604FEA1C4C0CFB0BF7D21BB4
:101AE00003FB0CF761EB07010CFB0EF7B0EB0740B3
:101AF00072EB17420CFB08F734BFA2EB0742B2EBC4
:101B0000074261EB17414FEA8C554FEA910704EB0E
:101B10009C2406FB07FC4FEA1C4C0CFB0BF7B0EBBC
:101B2000C74072EB573203FB0CF734BFA2EBC7423E
:101B3000B2EBC74261EB57310CFB0EF7B0EBC700BD
:101B400072EB57720CFB08F734BFA2EBC702B2EB83
:101B5000C70261EB577115EB4C254FEA816141EAF1
:101B600092114FEA82624FEAD13742EA901206FBA5
:101B700007FC44F100044FEA80604FEA1C4C0CFB68
:101B80000BF7D21B03FB0CF761EB07010CFB0EF705
:101B9000B0EB074072EB17420CFB08F734BFA2EB27
:101BA0000742B2EB074261EB174115EB1C154FEAF8
:101BB000813141EA92414FEA823242EA90424FEA51
:101BC00080304FEA0C7644F1000448EA03434EEAC1
:101BD0000B484FF0000EB2EB080C71EB030724BF6B
:101BE000624639464EEB0E0E4FF0000B0018524184
:101BF00049414BEB0B0BB2EB080C71EB03077BF18C
:101C0000000B24BF624639464EEB0E0E4FF0000B20
:101C10000018524149414BEB0B0BB2EB080C71EB36
:101C200003077BF1000B24BF624639464EEB0E0ED4
:101C300051EA020718BF46F0010616EB0E7655F181
:101C4000000254F1000103D5BDE88901BDE8008818
:101C5000BDE88901BDE80048B619524141EB0101D8
:101C6000A3F10103704780807F7E7D7C7B7A797849
:101C7000777676757473727171706F6E6E6D6C6C51
:101C80006B6A6A69686867666665646463636261F3
:101C90006160605F5F5E5E5D5D5C5C5B5B5A5A5974
:101CA00059585857575656555555545453535252E0
:101CB0005251515050504F4F4F4E4E4D4D4D4C4C38
:101CC0004C4B4B4B4A4A4A49494948484847474781
:101CD00047464646454545444444444343434342BE
:101CE000424242414141002B9C4630D477002BD0E8
:101CF0001CB54FEA370703B44FF010004FF0100146
:101D0000BAF1000F06D0BCF1000FDCBF40F00800B4
:101D100040F008014FF000000FBCBDE810400BF18F
:101D2000010BBBF1010F08BF5FEA170722BF12F1D9
:101D3000010211F101014FF0004143F1000300F0F5
:101D4000004043EA00007047F9D35708D0E746EA5D
:101D5000064613F1400F4FEA16461FDD13F1200F20
:101D6000DFBF16430A46002120335B42BED0C3F1D9
:101D7000200746EA064602FA07F74FEA164646EA01
:101D80000706C3F1200722FA03F201FA07F721FA46
:101D900003F14FF0000342EA0702A7E746EA020612
:101DA00046EA06464FEA164646EA0106BCBF46EA40
:101DB0000646360C4FF000034FF000024FF00001D2
:101DC00094E72DE9804C9A46934670B491E8380028
:101DD00007C831EA400C48BF34EA430C03D5FFF78B
:101DE000E6FDFFF780FFF0BCBDE8008C2DE9804CDC
:101DF0009A46934670B491E8380007C810F0804FB7
:101E000008BF13F0804F03D100F005F8FFF76BFF18
:101E1000F0BCBDE8008C20F07F4780EA030023F08F
:101E20007F4C07EB0C03A3F57C5300F00040A3F1BB
:101E3000FE0392F0000F00F0B38095F0000F00F069
:101E400077802DE901494FEA11404FEA144621EA13
:101E5000004800FB06FC24EA064708FB06F607FBE1
:101E600008F800FB07F718EB06484CEB164C4FEA56
:101E7000124B18EB07484FEA15464CEB174022EA85
:101E80000B4E0BFB06FC25EA06470EFB06F607FB8E
:101E90000EFE0BFB07F71EEB064E4CEB164C4FF0FD
:101EA00000061EEB074E4CEB174B18EB0B0840F1EE
:101EB000000018EB0E0B58EB000840F100008F1AE1
:101EC0004FF000013CBFC943661B14BFB5EB040CC7
:101ED00000213CBFC943F61B4FEA17444EEA8E0E61
:101EE00027EA04454FEA1C4704FB07622CEA074C2B
:101EF00005FB07F70CFB05F604FB0CFC16EB07468D
:101F000042EB174216EB0C4642EB1C421BEB06065B
:101F100058EB0202414146EA9E0601D5BDE801891F
:101F2000B619524141EB0101A3F10103BDE801895A
:101F30004FEA14454FEA114724EA054621EA074CC7
:101F400005FB07F406FB07F70CFB06F105FB0CFC91
:101F500011EB074144EB17444FEA124711EB0C41D8
:101F600044EB1C4422EA074C05FB07F206FB07F78B
:101F70000CFB06F605FB0CFC16EB074642EB174282
:101F800016EB0C4642EB1C456A1854F1000148BFA1
:101F90007047B619524141EB0101A3F101037047AB
:101FA00095F0000F37D04FEA11424FEA144721EA6B
:101FB000024624EA074C02FB07F106FB07F70CFB7D
:101FC00006F402FB0CFC14EB074441EB17414FEA0B
:101FD000154714EB0C4441EB1C4125EA074C02FB6E
:101FE00007F506FB07F70CFB06F602FB0CFC16EBED
:101FF000074645EB174516EB0C4645EB1C421219FC
:1020000051F1000148BF7047B619524141EB01013F
:10201000A3F1010370474FEA14454FEA114724EA40
:10202000054621EA074C05FB07F106FB07F70CFB09
:1020300006F24FF0000605FB0CFC12EB074241EBE9
:10204000174112EB0C4251EB1C4148BF70479218EC
:1020500041EB0101A3F10103704710B504F0FCF955
:10206000002010BDFEE7704772B6FEE72DE9F84F7D
:10207000DFF8BCA10022012503264FF00F090AF169
:10208000040BAAF1040E00BF0B6805FA02F423400A
:10209000A34270D10F7907F00307012F01D0022F5F
:1020A00016D187684FEA420806FA08FC27EA0C07AF
:1020B000D1F80CC00CFA08FC4CEA070CC0F808C0B8
:1020C0004768A7430C79C4F3001494403C43446030
:1020D0000C79E443A4070AD0C4684FEA420C06FA1C
:1020E0000CF7BC438F6807FA0CF72743C7600C79DD
:1020F00004F00304022C12D1D40800EB840CDCF8A9
:1021000020405707FF0E09FA07F824EA0804D1F81F
:10211000108008FA07F848EA0408CCF82080046820
:102120004FEA420C06FA0CF7BC430F7907F003079D
:1021300007FA0CF7274307604C6814F4403F70D04F
:102140003C4C276847F480472760246822F0030747
:1021500004F480440094384C07EB040CDCF8084885
:1021600097074FEA177809FA08F7BC43334FB8428C
:1021700002D1002724E054E0314FB84201D10127B9
:102180001EE0304FB84201D1022719E02E4FB8426D
:1021900001D1032714E02D4FB84201D104270FE0ED
:1021A0002B4FB84201D105270AE02A4FB84201D18E
:1021B000062705E0284FB84201D1072700E008278D
:1021C00007FA08F72743CCF80878DAF800405746B2
:1021D000D1F804C09C435FEACC2C00D51C433C6082
:1021E000DBF800405F46D1F804C09C435FEA8C2CCA
:1021F00000D51C433C60DEF800407746D1F804C0AF
:102200009C435FEA8C3C00D51C433C60084F083F70
:102210003C68D1F804C09C435FEACC3C00D51C4329
:102220003C60521C102AFFF42FAFBDE8F88F00006D
:10223000083C0140443802400030014000000240A8
:102240000004024000080240000C0240001002405E
:102250000014024000180240001C0240426921EABA
:1022600002030A4043EA0241816170470AB1816179
:1022700070470904FBE700000148806870470000D0
:10228000080000200B4810B5016841F4007101609E
:10229000016841F480610160016841F4807101606E
:1022A000032000F06FF8002000F006F800F024F89A
:1022B000002010BD003C024070B50D4D04464FF4A7
:1022C0007A712878B1FBF0F00A490968B1FBF0F0A7
:1022D00000F010FB48B9102C07D200222146501EF6
:1022E00000F030F800206C6070BD012070BD00006F
:1022F00008000020140000200A4808B5016841F4D5
:1023000080410160006800F4804000900548001F93
:10231000016841F080510160006800F08050009039
:1023200008BD000044380240002809DB00F01F020D
:10233000012191404009800000F1E020C0F8001127
:1023400070470000F0B40E4B1B680C46C3F3022329
:10235000C3F10705042D00D90425191D072901D251
:10236000002300E0DB1E012606FA05F1491E21408C
:1023700099409E40761E16403143F0BC00F0B5BD3A
:102380000CED00E0064900F0070208684FF6FF0375
:10239000184040EA0220034A1043086070470000DA
:1023A0000CED00E00000FA052DE9F0470E460500AF
:1023B00065D0DFF81481D8F80000F7B200F007000C
:1023C000B04207D288F80070D8F8000000F007008B
:1023D000B04254D128683D4C810712D5400703D53F
:1023E000206840F4E05020602878000703D520687A
:1023F00040F4604020602068A96820F0F0000843A5
:1024000020602878C0072DD0304968680839012835
:1024100012D0022813D0032811D009688907002997
:102420002DDA216821F0030101432160FFF724FF29
:10243000814641F2883A0EE009688903EFE70968AE
:102440008901ECE7FFF718FFA0EB0901514502D91C
:102450000320BDE8F0872068696800F00C00B0EB4D
:10246000810FEFD1D8F80010404601F00701B142CA
:1024700007D90770006800F00700B04201D00120C2
:10248000E7E72878400705D52068E96820F4E050A0
:10249000084320602878000706D52068296920F4C1
:1024A000604040EAC100206000F03EF82168084A20
:1024B000C1F30311515CC840064908600648006832
:1024C000FFF7FAFE0020C4E7003C02400838024053
:1024D0003E660008140000200C000020014800683F
:1024E000704700001400002004480549006809688E
:1024F000044AC1F38221515CC84070471400002097
:10250000083802404E66000804480549006809681A
:10251000044AC1F34231515CC840704714000020A6
:10252000083802404E660008154810B5006810F0E3
:102530000C02144813D04110042A0FD0082A0ED1DF
:102540000F4C241F2268236802F03F025B0207D56C
:102550002068C0F38810A0FB010106E0084610BD0A
:102560002168C1F38811A1FB00010023FDF76CFF76
:102570002168C1F30141491C4900B0FBF1F010BDD5
:10258000083802400024F4002DE9F84F04006ED012
:102590002078DFF84C93C007A9F104054AD009F16F
:1025A00004000168C1F38101012908D00068C0F36B
:1025B000810002280AD1D9F80000400206D5286817
:1025C000800337D560680028E1D033E06068B0F55B
:1025D000803F10D0B0F5A02F286810D020F48030B4
:1025E0002860286820F4802028606068A8B1FFF780
:1025F00043FE06460DE0286840F48030F4E740F4DE
:1026000080202860F7E700BFFFF736FE801B6428B4
:1026100073D828688003F7D50CE0FFF72DFE064637
:1026200005E000BFFFF728FE801B6428F0D828686B
:102630008003F7D42078DFF8AC8280074FF0000ADF
:102640003ED5A748001D016811F00C0F08D00068A6
:10265000C0F3810002280BD1D9F80000400207D452
:102660002868800716D5E068012800D112E033E120
:10267000E068B8B10120C8F80000FFF7FDFD06468C
:1026800005E000BFFFF7F8FD801B0228C0D82868CE
:102690008007F7D52868216920F0F80040EAC100DA
:1026A00028600DE0C8F800A0FFF7E6FD064604E04C
:1026B000FFF7E2FD801B02281FD828688007F7D4A7
:1026C0002078000722D5864F87486169703771B13D
:1026D00001210160FFF7D0FD064604E0FFF7CCFDC5
:1026E000801B022809D838688007F7D50EE0C0F8AB
:1026F00000A0FFF7C1FD064605E082E0FFF7BCFD44
:10270000801B02287DD838688007F7D420784007DE
:1027100068D5DFF8CCB100270BF13C0BDBF80000EB
:10272000C0000BD4DBF8001041F08051CBF8001052
:10273000DBF80000012700F0805000906B4E3068FD
:10274000C00510D4306840F480703060FFF794FD0D
:10275000009005E0FFF790FD0099401A022850D83C
:102760003068C005F6D55E4EA0686C3601280FD0E3
:102770000528306810D020F001003060306820F06B
:1027800004003060A068B8B1FFF776FD00900FE05C
:10279000306840F00100F4E740F004003060F7E7F3
:1027A000FFF76AFD0099411A41F28830814266D8EC
:1027B00030688007F4D50EE0FFF75EFD009007E07B
:1027C000FFF75AFD0099411A41F28830814256D8EC
:1027D00030688007F4D42FB1DBF8001021F080516D
:1027E000CBF80010A069C8B33D49091D0968C1F3C1
:1027F000810102294AD00228504607D0C8F860005B
:1028000000E03CE0FFF738FD04463BE04746C8F8EF
:102810006000FFF731FD064605E000BFFFF72CFD25
:10282000801B02282BD828688001F7D4D4E907013F
:102830000843A16A2E4A490802EB0141626A41EA53
:102840008211084394F82C1040EA0161C9F8001085
:1028500001203866FFF710FD044606E03EE000BFA9
:10286000FFF70AFD001B022809D828688001F7D568
:1028700034E000BFFFF700FD001B022802D903204F
:10288000BDE8F88F28688001F4D427E00128F7D04C
:10289000D9F80000E26900F4800191421CD1226A5B
:1028A00000F03F01914217D147F6C071626A0140C2
:1028B000B1EB821F10D1A26A4FF0FF3300F4403118
:1028C00003EB5202B1EB024F06D194F82C1000F04A
:1028D0007060B0EB016F01D00120D1E70020CFE79D
:1028E0000438024000004742800E4742007000401A
:1028F0000000FFFF10B5401EB0F1807F01D3012022
:1029000010BD4FF0E02460610F21601700F0EDFA78
:102910000020A06107202061002010BD70B50400D8
:1029200004D094F83D00002510B106E0012070BDF0
:1029300084F83C50204600F023F8242084F83D0021
:102940002068C16821F40051C160204600F0BEF942
:102950002068016921F4904101612068416921F0FA
:102960002A0141612068C16841F40051C1602564B9
:10297000202084F83D0084F83E00002070BD000057
:1029800010B586B0044614216846FDF7DDFE1B49EC
:10299000206888422FD11A480021026842F01002B4
:1029A0000260006800F010000590154814380268B5
:1029B00042F001020260006800F0010005904FF44F
:1029C000C06000900220CDE90101032003900720A0
:1029D000049069460B48FFF749FB0B480068C16843
:1029E00041F02001C16000220F212520FFF7AAFC41
:1029F0002520FFF799FC06B010BD00000010014033
:102A00004438024000000240EC0000202DE9F84369
:102A1000044690F83D001F4616460D4620284CD12E
:102A2000C5B1BEB194F83C00012846D0012084F81D
:102A30003C004FF00008C4F84080212084F83D009D
:102A4000FFF71AFCA6848146E684A068B0F5805F93
:102A500003D004E00120BDE8F883206928B12E46A8
:102A60005FF0000584F83C800EE00026FAE7802144
:102A7000204600F0B1F9A0B9AEB116F8010B2168FB
:102A80004860E08C401EE084E08C4B464FF0000232
:102A900000970028EBD14FF04001204600F09CF950
:102AA00030B10320D7E735F8020BC0F30800E6E7A2
:102AB000202084F83D000020CDE70220CBE7000075
:102AC000F0B587B014216846FDF73EFE214800248A
:102AD000016841F004010160016801F00401059101
:102AE000016841F080010160016801F080010591F9
:102AF000016841F002010160016801F002010591E5
:102B0000016841F0010101600068134E00F001000E
:102B10004FF400550590002229463046FFF7A6FBEA
:102B20000E4F002203213846FFF7A0FB0095012538
:102B3000CDE90154694630460394FFF797FA032024
:102B40000090CDE90154694638460394FFF78EFAA8
:102B500007B0F0BD303802400008024000040240D7
:102B60000C4810B50A4901604FF4E1314160002181
:102B700081600C22C160C0E904128161C161FFF76C
:102B8000CDFE002803D0BDE81040FFF76DBA10BDA0
:102B900000100140EC000020FEE7FEE710B502F057
:102BA0003FF803F013FABDE8104002F053B80000FC
:102BB00030B593B030216846FDF7C6FD14210CA84E
:102BC000FDF7C2FD1D480025016841F080510160FC
:102BD000006800F0805011901948016841F480416C
:102BE00001600068022400F48040119001200090F0
:102BF000000401908001CDE9064008AA0420A82124
:102C000082E813000B906846FFF7BEFC08B172B66D
:102C1000FEE70CA90F2081E831004FF4A0500F907F
:102C20004FF48050109005210CA8FFF7BDFB002841
:102C300001D072B6FEE713B030BD0000403802404C
:102C40000070004070B5194C2068194A10F00C0152
:102C5000184804D05510042903D0082903D0026075
:102C60001BE0056019E01149091F0B68C3F380568A
:102C70000B6803F03F0316B1B5FBF3F201E0B2FBC2
:102C8000F3F20B680968C3F388135A43C1F3014197
:102C9000491C4900B2FBF1F101602168064AC1F309
:102CA0000311515C0268CA40026070BD08380240DE
:102CB0000024F400140000203E6600080248016869
:102CC00041F470010160704788ED00E070B5044682
:102CD00000680169E26821F44051114301612169F2
:102CE000A068E26908436169114308432168CA6822
:102CF00049F20C639A430243CA6020684169A269A1
:102D000021F440711143416131492068884202D069
:102D10003049884202D1FFF7F7FB01E0FFF7E4FBFF
:102D2000E2690023192164253226B2F5004F62685A
:102D300028D0A0FB0101930F9200FDF785FB01460F
:102D4000B0FBF5F06FF01802504301EB800006EB8A
:102D50000010B0FBF5F000F0F002B1FBF5F002EB73
:102D60000012B1FBF5F06FF01803584301EB80003F
:102D700006EB0010B0FBF5F000F00F0021681044E6
:102D8000886070BDA0FB010192185B41FDF75CFB00
:102D90000146B0FBF5F00201B1FBF5F06FF018034E
:102DA000584301EB800006EBC000B0FBF5F000F0EB
:102DB000F80002EB4002B1FBF5F0584301EB800054
:102DC00006EBC000B0FBF5F000F00700D6E700000E
:102DD00000100140001401402DE9F04198461746CB
:102DE0000E460446069D27E0681C25D02DB1FFF74E
:102DF00043FAA0EB0800A8421ED920680C3050E826
:102E0000001F21F4D07140E80012002AF5D120689B
:102E1000143050E8001F21F0010140E80012002AA0
:102E2000F5D1202084F83D0084F83E00002084F88D
:102E30003C000320BDE8F0812068006836EA00000D
:102E400004D00020B842CFD00020F3E70120F9E7FA
:102E500070B501F0E5FE144C20680168C94389068D
:102E60001DD4C06880061AD520680168C943890648
:102E70000CD44068C5B229460CA001F02BFF681C99
:102E800004D029460A4802F04BFAEDE72068C168F1
:102E900041F02001C1600748006802F0A1FBBDE8D5
:102EA000704001F0D7BE0000EC0000202563000058
:102EB00030010020D0000020FEE703B4019841005B
:102EC000009850EAC12018BF04204A0D18BF40F0F6
:102ED000010040F2FF72B2EB515F08BF40F0020008
:102EE000012808BF052002B070470907090E002815
:102EF00004DB00F1E02080F80014704700F00F00C0
:102F000000F1E02080F8141D70470000002807D071
:102F10000E4910F0FF0F04D051FA80F00078401CE9
:102F2000704710F47F4F04D0C0F30720085C0930CD
:102F3000704710F47F0F04D0C0F30740085C1130D5
:102F4000704701EB1060007819307047E6670008A1
:102F500030380A2801D20120704700207047000055
:102F60002DE9F04F89B017468B4606004FF000045C
:102F700005D140F23712254925A001F01BFB3FB9CE
:102F80004FF49C72214923A001F014FB00E0641C63
:102F9000305D202803D0092801D05C45F7D34FF0DD
:102FA000FF3984B31D4804F1060ADFF87480056810
:102FB00011E006221BA12868FDF71BFB50B9286809
:102FC00022463146801DFDF714FB18B9296811F817
:102FD0000A0028B10C35D8F800008542E9D313E087
:102FE000AC6884B120216846FDF7AEFB6A465946BD
:102FF000304601F0CFF930B16946A0473860002073
:1030000009B0BDE8F08FFFE74846F9E74A6B0008D2
:10301000636D64007265747000000000D4000020CD
:10302000D80000205F5F636D645F000010B504008E
:1030300004D15022114912A001F0BCFAA06A017813
:10304000232906D1E169814203D9E26A02448A4216
:103050000AD221460FA001F03DFE00F09BFEFDF7D5
:1030600059F90028FDD110BD20308142FBD82146FE
:10307000BDE810400EA001F02DBE0000C46900089C
:1030800074687265616420213D2052545F4E554C36
:103090004C0000007468726561643A257320737493
:1030A00061636B206F766572666C6F770A00000053
:1030B0007761726E696E673A20257320737461635D
:1030C0006B20697320636C6F736520746F20656E6D
:1030D00064206F6620737461636B20616464726541
:1030E00073732E0A000000002DE9FC411F460446C0
:1030F000DDE90831DDE90A65143040600060C4E9AB
:103100000827C4E90A310A462321184601F041FF85
:10311000D4E90A014218D4E90801124B121F01F048
:1031200061FDE061202E04D3A7220F490FA001F01A
:1031300041FA84F8366084F835600020C4E90E0551
:103140002564206384F8340020676067009023467C
:1031500001900F4A194604F1440003F061F8002081
:10316000BDE8FC81695A0008126A00087072696F34
:1031700072697479203C2052545F5448524541444E
:103180005F5052494F524954595F4D415800000019
:10319000795E000810B5029C24F001044472C0E975
:1031A00007120021C0E9093114304060006010BDF1
:1031B000143001F0D6BD70B50546FDF7ABF8296FA8
:1031C000044609B1284688472046BDE87040FDF70F
:1031D000A5B80000054C4FF4FA7501212046FFF711
:1031E0003DF8284602F01CFDF7E70000000402400D
:1031F00010B51BA001F06EFD1C4C21781CA001F045
:1032000069FD2078C00702D01FA001F063FD20787F
:10321000800702D51FA001F05DFD2078400702D590
:103220001FA001F057FD2078000702D520A001F073
:1032300051FD2078C00602D520A001F04BFD20787A
:10324000000607D509480F300168BDE810401DA0F1
:1032500001F040BDBDE810401EA001F03BBD0000E4
:10326000627573206661756C743A0A0029ED00E09E
:103270005343425F434653525F424653523A30787B
:103280002530325820000000494255534552522003
:10329000000000005052454349534552522000005F
:1032A000494D5052454349534552522000000000B9
:1032B000554E53544B4552522000000053544B4539
:1032C000525220005343422D3E424641523A25304D
:1032D00038580A000A00000010B500F0DDFA00209E
:1032E00010BD10B500F056FD002010BD104810B5FF
:1032F000416991F82110890703D40E490020087014
:1033000013E0016921B180220A48FDF744FA0CE07C
:1033100001F03EF808B108A100E009A10548FDF759
:1033200025F909A10348FDF7AFF9024810BD0000D7
:10333000D4000020544000206D736820000000007D
:1033400066696E73682000003E00000070B5084C8E
:103350000546606920B9A422064907A001F02AF9B0
:10336000606910F8211F65F34101017070BD000014
:10337000D4000020806B00087368656C6C20213DD0
:103380002052545F4E554C4C00000000014AC2E9E7
:1033900000017047D40000207CB516491648FFF79D
:1033A000F5FF7821012001F03BF9144C6061D0B1A8
:1033B0000A211520CDE900014FF480630022104955
:1033C00010A002F02CFB054600231A460FA16069ED
:1033D00002F0D0F80120FFF7B9FF15B1284602F03E
:1033E000ABFC00207CBD0BA001F074FC4FF0FF3063
:1033F0007CBD00007872000888710008D4000020AD
:103400002D340008747368656C6C00007368727802
:10341000000000006E6F206D656D6F727920666F21
:1034200072207368656C6C0A00000000984D686932
:1034300010F8211F41F001010170FFF757FF01F063
:1034400049FC002601F086FA0400FBD41B2C07D0AF
:10345000686990F82010012907D002290ED017E0E2
:103460006969012081F82000ECE75B2C02D080F82C
:1034700020600DE0022180F82010E3E780F8206052
:10348000412CDFD0422CDDD0442C38D0432C43D00B
:10349000002CD7D0FF2CD5D0092C4ED07F2C75D046
:1034A000082C73D00D2C70D00A2CFCD0B0F8721000
:1034B000502901D3A0F87260B0F87430B0F87210DF
:1034C0008B427DD2CA1A00F12201233019441844DC
:1034D00001F046FD6869B0F8741022300C54686938
:1034E00090F82110C90706D0B0F8741022300144BA
:1034F00068A001F0EFFB6869B0F87440A5E0B0F88F
:10350000740000289ED064A001F0E4FB686930F8E4
:10351000741F491E018095E7B0F87410B0F872204E
:1035200091428FD22230095C5CA001F0D3FB696923
:1035300031F8740F401C088084E7002403E056A093
:1035400001F0C8FB641C6869B0F87400A042F6DCA6
:103550006C6953A0223401F0BDFB00F019FF012873
:1035600002D1204600F050FEFFF7C0FE0146224681
:103570004CA001F0AFFB68692230FDF71BF86969C8
:1035800021F8720F48805DE700E03DE0B0F874205C
:10359000002AC0D0B0F87210521E491E89B293B2F0
:1035A000A0F87210A0F87430994224D9CA1A00F118
:1035B000230122301944184401F0D2FC686900E06C
:1035C00049E0B0F8721022300E546869B0F87410F7
:1035D0002230014435A001F07DFB6869B0F87440E9
:1035E00003E02DA001F076FB641C6869B0F872005E
:1035F000A04290DBF5E72FA001F06CFB6869B0F802
:10360000721022300E541DE700F0C2FE01280DD1C9
:10361000686990F82100C00702D021A001F05AFB90
:103620006869B0F87210223000F044FEFFF75EFEC9
:1036300001F050FB686950212230FDF763F868699A
:1036400022E015A001F046FB641C6869B0F8720026
:10365000A042F6DC0AE022300C54686990F82100A0
:10366000C00703D021460DA001F034FB6869B0F813
:103670007210491C89B2A0F87210B0F87420521C64
:10368000A0F874205029BED320F8726F4680D9E686
:10369000D40000202573000008000000256300000E
:1036A0000A00000025732573000000000825732020
:1036B000200800000820080010B5FFF751FA00228A
:1036C000114606A001F004FF0649086020B9512206
:1036D000054906A000F06EFF002010BD6D73685F05
:1036E00053656D00D00000203C6B000873656D5F72
:1036F0007400000010B5124C2068800702D511A09C
:1037000001F0E8FA2068400011D50D48C01E00788D
:1037100008B1FFF76DFD0A48001F007808B100F0FE
:1037200007FD0748801E008808B102F0C3FE20682C
:10373000002804DABDE8104008A001F0CBBA10BDA3
:103740002CED00E06661696C656420766563746FDA
:10375000722066657463680A000000006465627523
:1037600067206576656E740A0000000010B502A03F
:1037700001F0B0FA002010BD48656C6C6F20525407
:103780002D546872656164210A000000054C4FF4F5
:10379000FA7502212046FEF761FD284602F040FA44
:1037A000F7E700000004024070B50CA001F092FAA7
:1037B0000F48104D04680BE002220FA12068FCF7AF
:1037C00018FF20B1D4E900120CA001F083FA0C34E8
:1037D00028688442F0D3002070BD00002D2D46756E
:1037E0006E6374696F6E204C6973743A0A0000004E
:1037F000D4000020D80000205F5F0000252D313666
:1038000073202D2D2025730A000000002DE9F041C2
:1038100004461E4617460D46084601F095FC001D5D
:103820002060257200206760C4E90360BDE8F08174
:103830002DE9F0410D4600212961E96891B1297A0D
:1038400081B12E6888B10446FCF764FD0146A4F1FD
:103850000C002A7A007A20F08000904209D00846B5
:10386000FCF75CFD0020BDE8F0813446FCF752FD1A
:103870000146686800272468B44201D1002404E0AE
:1038800010C0EA687F1CBA42F5D10846FCF746FD35
:1038900020462F61E7E7000010B5074C07A0E1685C
:1038A00001F018FA0AA0216901F014FA6169BDE873
:1038B00010400CA001F00EBA28000020746F746153
:1038C0006C206D656D6F72793A2025640A000000E6
:1038D00075736564206D656D6F7279203A2025647B
:1038E0000A0000006D6178696D756D20616C6C6F08
:1038F0006361746564206D656D6F72793A2025642B
:103900000A000000F0B597B0082300262FA40EAAE5
:10391000194608A8FFF77AFF0827224639462DA046
:1039200001F0D8F9384600F09DFD34A001F0D2F93D
:1039300008A93046FFF77CFF064600253EE00EA8AA
:1039400050F825400C3CFCF7E5FC217A9DF8282036
:1039500021F08001914202D0FCF7E0FC2DE0FCF761
:10396000DDFC2346002054F82C1F01E00968401CB0
:10397000A142FBD1002814DDD3E90921D3F81CC0F2
:103980000390CDF800C0CDE901210822394624A0DA
:1039900001F0A0F9204602F075FD20A001F09AF98F
:1039A0000BE0D3E90942D969CDE90220CDE9001441
:1039B0000822394621A001F08DF96D1C0C98A8420F
:1039C000BDDC002EB4D117B00020F0BD6D656D7068
:1039D0006F6F6C00252D2A2E7320626C6F636B2035
:1039E000746F74616C2066726565207375737065A1
:1039F0006E64207468726561640A0000202D2D2DAC
:103A00002D20202D2D2D2D20202D2D2D2D202D2D27
:103A10002D2D2D2D2D2D2D2D2D2D2D2D0A00000080
:103A2000252D2A2E2A732025303464202025303479
:103A3000642020253034642025643A00252D2A2E68
:103A40002A7320253034642020253034642020253A
:103A50003034642025640A002DE9F04194B000263A
:103A60002CA408230BAA062105A8FFF7CFFE0820E7
:103A70008046014622462AA001F02CF9404600F07B
:103A8000F1FC2EA001F026F905A93046FFF7D0FE83
:103A90000646002535E00BA850F825400C3CFCF705
:103AA00039FC217A9DF81C2021F08001914202D03E
:103AB000FCF734FC24E0FCF731FC606904F11407E6
:103AC000B842384611D001F031F9A18CCDE900108F
:103AD0002346082241461FA001F0FCF8384602F0B8
:103AE000D1FC21A001F0F6F80AE001F01FF9A18C49
:103AF000CDE900102346082241461CA001F0EAF857
:103B00006D1C0998A842C6DC002EBDD114B000205F
:103B1000BDE8F0816D736771756575650000000023
:103B2000252D2A2E7320656E74727920737573703B
:103B3000656E64207468726561640A00202D2D2D05
:103B40002D20202D2D2D2D2D2D2D2D2D2D2D2D2DBF
:103B50002D0A0000252D2A2E2A73202530346420BA
:103B60002025643A000000000A000000252D2A2EBE
:103B70002A732025303464202025640A00000000C8
:103B8000F0B595B0002623A408230DAA032107A8A9
:103B9000FFF73CFE08272246394620A001F09AF89C
:103BA000384600F05FFC26A001F094F807A93046E3
:103BB000FFF73EFE0646002523E00DA850F82540FD
:103BC0000C3CFCF7A7FB217A9DF8242021F0800112
:103BD000914202D0FCF7A2FB12E0FCF79FFB04F13C
:103BE000140001F0A3F8E17F226A0823CDE9003236
:103BF000CDE9021023460822394619A001F06AF8DF
:103C00006D1C0B98A842D8DC002ECFD115B0002037
:103C1000F0BD00006D75746578000000252D2A2E1A
:103C2000732020206F776E65722020686F6C64208F
:103C300073757370656E64207468726561640A00E0
:103C4000202D2D2D2D2D2D2D2D202D2D2D2D202DCB
:103C50002D2D2D2D2D2D2D2D2D2D2D2D2D0A000011
:103C6000252D2A2E2A7320252D382E2A7320253023
:103C700034642025640A00002DE9F04194B0002648
:103C80002CA408230BAA022105A8FFF7BFFD0820DA
:103C90008046014622462AA001F01CF8404600F06A
:103CA000E1FB2EA001F016F805A93046FFF7C0FD94
:103CB0000646002535E00BA850F825400C3CFCF7E3
:103CC00029FB217A9DF81C2021F08001914202D02D
:103CD000FCF724FB24E0FCF721FB606904F11407E6
:103CE000B842384611D001F021F8A18BCDE900107F
:103CF0002346082241461FA000F0ECFF384602F0A0
:103D0000C1FB15A000F0E6FF0AE001F00FF8A18B5F
:103D1000CDE900102346082241461AA000F0DAFF40
:103D20006D1C0998A842C6DC002EBDD114B000203D
:103D3000BDE8F08173656D6170686F7265000000A9
:103D4000252D2A2E73207620202073757370656EC2
:103D500064207468726561640A000000202D2D2DB6
:103D6000202D2D2D2D2D2D2D2D2D2D2D2D2D2D0AB3
:103D700000000000252D2A2E2A73202530336420D0
:103D800025643A00252D2A2E2A73202530336420FD
:103D900025640A002DE9F041B4B000263CA40823B4
:103DA0002CAA012126A8FFF731FD082080460146F4
:103DB0002246394800F08EFF404600F053FB37A002
:103DC00000F088FF26A93046FFF732FD06460025A1
:103DD00054E02CA850F825400C3CFCF79BFA074611
:103DE000207A9DF8A01020F08000884203D0384649
:103DF000FCF794FA41E07822214607A8FCF750FC32
:103E00003846FCF78BFA94F83500009023460822D8
:103E1000414632A000F05EFF94F8340000F00F003D
:103E2000012807D0022807D040B1042808D0032871
:103E300008D00AE02CA006E02EA004E030A002E0AA
:103E400032A000E034A000F045FFA06A014600E087
:103E5000401C0278232AFBD0E26A401A101A64231D
:103E60005843B0FBF2F3276B206CCDE90007E06903
:103E7000081A81182BA000F02DFF6D1C2A98A8426B
:103E8000A7DC002E9ED134B00020BDE8F0810000F8
:103E90007468726561640000286E0008202D2D2D65
:103EA00020202D2D2D2D2D2D2D202D2D2D2D2D2D69
:103EB0002D2D2D2D202D2D2D2D2D2D2D2D2D2D204C
:103EC000202D2D2D2D2D2D20202D2D2D2D2D2D2D49
:103ED0002D2D2D202D2D2D0A00000000252D2A2E00
:103EE0002A732025336420002072656164792020C4
:103EF000000000002073757370656E6400000000A0
:103F000020696E69742020200000000020636C6F1F
:103F100073652020000000002072756E6E696E6768
:103F200000000000203078253038782030782530A7
:103F3000387820202020253032642525202020308C
:103F4000782530387820253033640A00F0B593B0F6
:103F5000002626A408230BAA0A2104A8FFF756FC72
:103F600008272246394623A000F0B4FE384600F068
:103F700079FA2AA000F0AEFE04A93046FFF758FCFB
:103F80000646002524E00BA850F825400C3CFCF721
:103F9000C1F9217A9DF8182021F08001914202D0C8
:103FA000FCF7BCF913E0FCF7B9F9D4E90901CDE954
:103FB000000123460822394621A000F08BFE607ADA
:103FC000C00701D024A000E026A000F083FE6D1CF5
:103FD0000898A842D7DC002ECED101F0F1FF0146AF
:103FE00024A000F077FE13B00020F0BD74696D6569
:103FF00072000000252D2A2E732020706572696FD3
:1040000064696320202074696D656F7574202020B9
:1040100020202020666C61670A000000202D2D2DD5
:104020002D2D2D2D2D2D2D202D2D2D2D2D2D2D2DCD
:104030002D2D202D2D2D2D2D2D2D2D2D2D2D0A000D
:10404000252D2A2E2A732030782530387820307894
:1040500025303878200000006163746976617465EA
:10406000640A000064656163746976617465640A5A
:104070000000000063757272656E74207469636B72
:104080003A3078253038780A000000001CB5FEF779
:10409000F9F8FEF78DFDFEF713FDFEF761FD012037
:1040A0001425CDE90005860233460022114912A0ED
:1040B00001F0B5FC114C206020B9A922104911A0D3
:1040C00000F078FA206801F037FE0220CDE9000503
:1040D000334600220D490EA001F0A1FC606020B91A
:1040E000AC2207490CA000F065FA606801F024FEDC
:1040F000FEE700008D3700086C65640000000020BA
:10410000FA6500087468726561643100D531000891
:104110006265657000000000746872656164320059
:1041200010B500F0AFFABDE81040FFF7AFBF0000D8
:1041300010B518A000F0CEFD1B4C21781BA000F09C
:10414000C9FD2078C00702D01EA000F0C3FD207872
:10415000800702D51EA000F0BDFD2078000702D523
:104160001EA000F0B7FD2078C00602D51EA000F00A
:10417000B1FD2078000607D50B480C300168BDE87A
:1041800010401CA000F0A6BDBDE810401D4800F086
:10419000A1BD00006D656D206D616E616765206673
:1041A00061756C743A0A000028ED00E05343425FE9
:1041B000434653525F4D4653523A30782530325879
:1041C000200000004941434356494F4C2000000065
:1041D0004441434356494F4C200000004D554E5337
:1041E000544B4552522000004D53544B45525220DF
:1041F000000000005343422D3E4D4D41523A2530C0
:1042000038580A00246500082DE9F047804600254B
:1042100000782C4618B12248224F066831E0BDE8EC
:10422000F0470021084600F077B806221EA130684A
:10423000FCF7DFF920BB306800F106094046FCF7C7
:10424000B9F9024649464046FCF7D3F9C0B925B949
:104250004C464846FCF7AEF905464946204601E083
:10426000401C491C02781AB10B780BB19A42F7D066
:10427000001BA84200DA054649460DA000F02AFDC1
:104280000C3638688642D0D3002C06D02A46214608
:104290004046BDE8F04701F0F5BABDE8F087000000
:1042A000D4000020D80000205F5F636D645F0000D1
:1042B00025730A0038B5044601E0491E641C59B153
:1042C00020782028F9D00928F7D06A462046FEF742
:1042D00047FE18B1204604E0002038BD009838BDE4
:1042E000401C0178202901D00029F9D1002101705A
:1042F000214603A000F0EEFC4FF0FF3038BD000077
:1043000025733A20636F6D6D616E64206E6F74204B
:10431000666F756E642E0A0070B50EA000F0DAFCB0
:104320001348144D04680CE0062213A12068FCF722
:1043300060F928B9D4E9001211A0891D00F0CAFC67
:104340000C3428688442EFD310A000F0C3FC002096
:1043500070BD000052542D5468726561642073680A
:10436000656C6C20636F6D6D616E64733A0A00005A
:10437000D4000020D80000205F5F636D645F000000
:10438000252D313673202D2025730A000A000000E8
:104390000120704770B5002315461C461A464BE0B5
:1043A00000F8012B5B1C0678202E01D0092E01D1CC
:1043B0008B42F5D3082C11D321A000F08BFC0026F2
:1043C00006E000BF55F8261025A000F083FC761CFF
:1043D000A642F7D321A000F07DFC2FE08B422DD226
:1043E000F6B2222E03D045F82400641C1BE0401CCA
:1043F00045F824005B1C641C08E05C2E04D1467860
:10440000222E01D1401C5B1C401C5B1C0678222E16
:1044100001D08B42F1D38B4210D200F8012B5B1CF0
:104420000AE0401C5B1C0678202E03D0092E01D028
:104430008B42F6D38B4201D28B42B4D3204670BD5F
:10444000546F6F206D616E79206172677320212037
:104450005765206F6E6C79205573653A0A0000002D
:104460002573200010B5044602E003A000F032FCE2
:10447000641EFAD210BD00002D00000070B5204D62
:1044800004462868844204D2A1221E491EA000F0DE
:1044900091F86868844204D3A2221A4922A000F04D
:1044A00089F8608820B1A32216492AA000F082F87A
:1044B0006168286801448C420FD04A886AB96A68EA
:1044C00091420AD0AA688A4200D1AC604A68626010
:1044D0004B6800F10801221A5A50A1680144A14218
:1044E0000CD04A88002A09D1AA68A24200D1A9604A
:1044F00062684A60091A62680830115070BD000095
:1045000028000020106900082872745F75696E74B5
:10451000385F74202A296D656D203E3D20686561F5
:10452000705F7074720000002872745F75696E7439
:10453000385F74202A296D656D203C202872745FD5
:1045400075696E74385F74202A29686561705F65CB
:104550006E6400006D656D2D3E75736564203D3D94
:10456000203000001CB514210A20CDE900014FF4D1
:1045700080630022074908A001F051FA040004D129
:10458000C522074907A000F015F82046BDE81C40E9
:1045900001F0D2BB214100086D61696E000000008E
:1045A0008666000874696420213D2052545F4E5590
:1045B0004C4C000038B500238DF80030094B5C6886
:1045C00024B101B0A446BDE83040604713460A4616
:1045D000014605A000F07EFB9DF800000028FBD0FE
:1045E00038BD000020000020282573292061737346
:1045F000657274696F6E206661696C6564206174B0
:104600002066756E6374696F6E3A25732C206C6931
:104610006E65206E756D6265723A2564200A000031
:1046200070B54843044600F0A5FB050003D02246C0
:10463000002100F0AEFC284670BD000070B5084CAB
:10464000084D0AE008A0216800F044FB606880473C
:10465000014609A000F03EFB0834AC42F2D370BD25
:104660006071000868710008696E697469616C693D
:104670007A652025730000003A256420646F6E651A
:104680000A00000070B50AA000F024FB104C114D88
:104690000AE011A0216800F01DFB60688047014618
:1046A00011A000F017FB0834AC42F2D370BD00003B
:1046B000646F20636F6D706F6E656E747320696ECA
:1046C000697469616C697A6174696F6E2E0A0000A1
:1046D0006871000880710008696E697469616C69AD
:1046E0007A652025730000003A256420646F6E65AA
:1046F0000A00000010B5FBF70DFE044A5188491C62
:104700005180BDE81040FBF709BE0000A00000206A
:1047100010B5FBF7FFFD0B4C6188491E09B26180A3
:1047200000290ADC00216180FBF7F8FD60680028A1
:1047300007D0BDE8104000F029BEBDE81040FBF7EF
:10474000EDBD10BDA000002070B504006AD0FBF7DD
:10475000E1FD054600F072FA48B1334933A000F09C
:10476000B9FA4FF40B7230493AA0FFF723FF2846FD
:10477000FBF7D4FDA00705D040F22E222A4936A02F
:10478000FFF718FF404D2868844202D368688442CE
:1047900005D340F22F2224493C48FFF70BFF28683D
:1047A00084423FD3686884423CD24FF0FF3138489E
:1047B0000C3C00F057FF60884FF4F55610B120888C
:1047C000B04219D033A000F085FA238862882146D0
:1047D00037A000F07FFA608828B940F24E221249D3
:1047E0003FA0FFF7E7FE2088B04205D040F24F22FD
:1047F0000D493EA0FFF7DEFE002060802680A868FD
:10480000844200D2AC6029686068611A401A296944
:10481000081A28612046FFF731FEBDE870401C48A9
:1048200000F0DEBE70BD00000869000846756E63CA
:1048300074696F6E5B25735D207368616C6C206EAC
:104840006F74206265207573656420696E2049531A
:10485000520A00003000000028282872745F756238
:104860006173655F7429726D656D29202620285259
:10487000545F414C49474E5F53495A45202D2031E2
:104880002929203D3D20300028000020446D0008EB
:1048900034030020746F20667265652061206261B8
:1048A00064206461746120626C6F636B3A0A00007B
:1048B0006D656D3A203078253038782C2075736519
:1048C0006420666C61673A2025642C206D616769FD
:1048D0006320636F64653A203078253034780A00AD
:1048E0006D656D2D3E757365640000006D656D2D01
:1048F0003E6D61676963203D3D20484541505F4DF5
:10490000414749430000000000487047540400201C
:10491000004870475440002010B5FDF7B3FCFEF787
:1049200047F9FEF78FF9FEF7CBF8FDF7D7FD4FF407
:104930007A71B0FBF1F0FDF7DDFFFFF77FFEFFF7C7
:10494000E7FF0446FFF7E0FF2146BDE8104000F016
:10495000ADBF000038B54FF0FF34084D009403E0C0
:104960002146286800F07EFE6946054800F0A4FC58
:104970000128F5D10098C0B238BD0000D000002059
:1049800030010020F8B506460D200F498DF80000D3
:10499000002481F83C40304600F06CFF05460FE0F3
:1049A000305D0A2805D101231A4669460648FEF7FC
:1049B0002DF8012331191A460348FEF727F8641C25
:1049C000AC42EDD3F8BD0000EC00002070B53149D9
:1049D0000546283009682C1D11B18847002857D09A
:1049E0002DA0216C00F076F92FA0616A00F072F919
:1049F00031A0A16A00F06EF933A0E16A00F06AF913
:104A000035A0216B00F066F937A0616800F062F90B
:104A100039A0A16800F05EF93BA0E16800F05AF906
:104A20003DA0216900F056F93FA0616900F052F9FC
:104A300041A0A16900F04EF943A0E16900F04AF9F4
:104A400045A0216A00F046F947A0616B00F042F9E9
:104A500049A0A16B00F03EF94BA0E16B00F03AF9E0
:104A60002878400708D501F021F901464AA000F056
:104A700031F9FFF78FF902E04FA000F02BF9287809
:104A8000C00602D453A000F025F9FEF733FEFEE77E
:104A900070BD0000C00000207073723A203078258D
:104AA0003038780A000000007230303A2030782523
:104AB0003038780A000000007230313A2030782512
:104AC0003038780A000000007230323A2030782501
:104AD0003038780A000000007230333A20307825F0
:104AE0003038780A000000007230343A20307825DF
:104AF0003038780A000000007230353A20307825CE
:104B00003038780A000000007230363A20307825BC
:104B10003038780A000000007230373A20307825AB
:104B20003038780A000000007230383A203078259A
:104B30003038780A000000007230393A2030782589
:104B40003038780A000000007231303A2030782581
:104B50003038780A000000007231313A2030782570
:104B60003038780A000000007231323A203078255F
:104B70003038780A00000000206C723A2030782526
:104B80003038780A000000002070633A2030782521
:104B90003038780A00000000686172642066617530
:104BA0006C74206F6E207468726561643A2025739E
:104BB0000D0A0D0A000000006861726420666175CC
:104BC0006C74206F6E2068616E646C65720D0A0DE6
:104BD0000A00000046505520616374697665210D16
:104BE0000A00000070B50446121D22F007000022E2
:104BF0000A4D443840F82250521C112AFAD341621F
:104C000000218162C16200F13402016382E81A006E
:104C10004FF080730364016070BD0000EFBEADDE35
:104C200010B5FBF777FB044A1178491C1170BDE8F9
:104C30001040FBF773BB00001C00002010B5FBF711
:104C400069FB03490C78FBF769FB204610BD0000A7
:104C50001C00002010B5FBF75DFB044A1178491ECB
:104C60001170BDE81040FBF759BB00001C0000208C
:104C700010B50068143800F0DBFF002010BD000004
:104C80002DE9F041064614460D46084601F0B2F8FB
:104C900005F11407B4B1012C18D134680EE000BF3F
:104CA00095F8351094F82120A4F11400914204D213
:104CB0003946143000F033F802E02468B442EFD1F2
:104CC000B44203D13946304600F029F80020BDE84F
:104CD000F08100000FB47F2110B503AB0448029AA5
:104CE000FBF72AFC0248FFF74DFE10BC5DF814FBF1
:104CF000B40200200268516002680A6001604860E6
:104D000070470268516002680A600160486070473D
:104D10000268516002680A6001604860704742683A
:104D2000116042684A604160086070470246002195
:104D300000E0491C00689042FBD108467047D0E96A
:104D400000124A60D0E900121160406000607047B4
:104D5000D0E900124A60D0E90012116040600060A2
:104D60007047D0E900124A60D0E90012116040603B
:104D7000006070472DE9F047040019D0FBF7CAFA2C
:104D80000546FFF75BFF48B14F4950A0FFF7A2FF70
:104D90004FF48C724C4957A0FFF70CFC2846FBF7E8
:104DA000BDFAE41C24F00306534CE068864202D9A5
:104DB0000020BDE8F0870C2E00D20C264FF0FF310A
:104DC0004E4800F04FFC2168A068D4F80CC0421A8D
:104DD000ACEB060372E08D186F88002F6DD16F6801
:104DE000BF1A0C3FB74268D36B6806F118079B1ACD
:104DF0000C3B4FF001094FF4F55ABB422BD39719E6
:104E00000C37CB194FF00008A3F800A0A3F80280DC
:104E1000D5F80480C3E901826F60A5F802905A6852
:104E20000CF10C0C624502D001F10803D750226945
:104E300032440C3222616369934200D26261A5F868
:104E400000A085421AD16268438863B190420AD0BB
:104E500040680844F8E7A5F802906A686B1AD21A0D
:104E600023691A44E6E7A060904207D0408828B141
:104E70004FF4C172144922A0FFF79CFB1F4800F0B9
:104E8000AFFBA81961680C30884205D94FF4C37292
:104E90000D492548FFF78EFBA8070BD040F287127B
:104EA00009492248FFF786FB4FF4C472064920A047
:104EB000FFF780FB05F10C007BE76A6893428AD814
:104EC0000E4800F08DFB73E72F69000846756E638E
:104ED00074696F6E5B25735D207368616C6C206E06
:104EE0006F74206265207573656420696E20495374
:104EF000520A000030000000280000203403002087
:104F000028286C66726565203D3D20686561705F8C
:104F1000656E6429207C7C2028216C667265652D75
:104F20003E75736564292900A06D0008F86C0008BF
:104F300028282872745F75626173655F74296D65D6
:104F40006D292026202852545F414C49474E5F531B
:104F5000495A45202D20312929203D3D203000008F
:104F600010B50346994211D28C189C420ED9811873
:104F700004E000BF14F8013D01F8013D521EF9D2D2
:104F800010BD00BF11F8014B03F8014B521EF9D2BE
:104F900010BD10B50346C9B201E003F8011B521E53
:104FA000FBD210BD2DE9F0410F460646FBF7B2F9E2
:104FB0000446FFF743FE48B11C491DA0FFF78AFED7
:104FC0004FF4C372194924A0FFF7F4FA2046FBF707
:104FD000A5F9304600F0B8F8050005D14FF4C572C8
:104FE00012491EA0FFF7E6FAE868FFF7C3FE0400C7
:104FF00019D00021EA68FFF7CCFF2672002060720A
:1050000008223946204600F03DFCFBF783F90646AE
:1050100004F10C01281DFFF76DFE3046FBF77EF909
:105020002046BDE8F0810020FBE70000646900082D
:1050300046756E6374696F6E5B25735D207368617E
:105040006C6C206E6F7420626520757365642069D6
:105050006E204953520A000030000000696E666FEE
:10506000726D6174696F6E20213D2052545F4E5500
:105070004C4C000070B5040005D14FF4DD720F49AF
:105080000FA0FFF797FA207A000605D540F2BB1271
:105090000A4910A0FFF78EFA00202072FBF73AF9B8
:1050A000054604F10C00FFF74AFE2846FBF736F9E7
:1050B0002046BDE87040FFF747BB00007769000855
:1050C0006F626A65637420213D2052545F4E554CD7
:1050D0004C00000021286F626A6563742D3E74796C
:1050E000706520262052545F4F626A6563745F4387
:1050F0006C6173735F53746174696329000000000D
:1051000070B5040005D14FF4B372094909A0FFF747
:1051100051FA00202072FBF7FDF8054604F10C005F
:10512000FFF70DFE2846BDE87040FBF7F7B800001A
:10513000536900086F626A65637420213D205254F0
:105140005F4E554C4C000000074A002102EB011352
:105150001B78834202D102EB01107047491C0629DB
:10516000F4DB0020704700004000002010B5040070
:1051700005D140F2EF12044904A0FFF71BFA207A90
:1051800020F0800010BD0000A26900086F626A650F
:10519000637420213D2052545F4E554C4C0000005A
:1051A0002DE9F0470646924688460846FFF7CCFFB1
:1051B000050005D140F23312174918A0FFF7FAF99C
:1051C000FFF798FA40F243192F1D6C680BE000BFFF
:1051D000B4F10C0006D0B04204D14A460E4915A0E5
:1051E000FFF7E8F92468BC42F2D1FFF791FA48F0E2
:1051F0008000307208225146304600F043FBFBF736
:1052000089F8044606F10C01281DFFF773FD2046BE
:10521000BDE8F047FBF782B844690008696E666F25
:10522000726D6174696F6E20213D2052545F4E553E
:105230004C4C00006F626A20213D206F626A6563FA
:105240007400000010B5040005D14FF4EE7205495A
:1052500005A0FFF7AFF9207A000601D5012010BDA7
:10526000002010BD886900086F626A6563742021A0
:105270003D2052545F4E554C4C00000010B58288C2
:10528000C1885408B4EB510F08D1D207B2EBC17FEB
:1052900001D1002010BDB0F9080010BD4B08B3EBE0
:1052A000520F02D9A3EB520010BDB0F90800A4EBD5
:1052B0005101401A10BD000070B50D46040004D124
:1052C0005322124912A0FFF775F92046FFF7D6FFC7
:1052D000002819D0A188206800EB510000782870C0
:1052E000B4F90810A088491EB1EB500F05D1C14395
:1052F00061F3000000F0010004E0012101EB500126
:1053000061F34F00A080012070BD000028660008F6
:10531000726220213D2052545F4E554C4C000000DB
:1053200070B50D46040004D13922134913A0FFF7CC
:1053300041F92046FFF7A2FFB4F90810884201D1D5
:10534000002070BDE188206800EB51000570B4F9C1
:105350000810E088491EB1EB500F05D1C14361F33D
:10536000000000F0010004E0012101EB500161F3B5
:105370004F00E080012070BD12660008726220219B
:105380003D2052545F4E554C4C0000002DE9F04139
:10539000FAF7C0FF124D07466888C8B9A868FDF73C
:1053A000B5FD1049401E6E6851F83040143CB442BF
:1053B0000ED0287020466C60FDF738FE0A48007851
:1053C00004F11C01002806F11C0006D0FAF7A9FF21
:1053D0003846BDE8F041FAF7A1BFFAF7A2FFF7E7B8
:1053E000A0000020540300201C00002010B5040081
:1053F00005D140F21712124912A0FFF7DBF8FAF7B5
:1054000089FF024694F83400134920F00F00401C35
:1054100084F8340094F8350001EBC00104F1140065
:105420004B6818604B68A36148600C486161A16BD0
:10543000836819438160BDE810401046FAF76EBFDB
:10544000DE69000874687265616420213D20525451
:105450005F4E554C4C00000054030020A00000207B
:1054600010B5040005D140F24512114911A0FFF713
:10547000A1F8FAF74FFF04F11401D1E900235360BA
:10548000D1E900231A60A161616194F835200E49C9
:1054900051F8323001EBC2018B4204D10B49A36BAE
:1054A0008A689A438A60BDE81040FAF737BF000067
:1054B000F869000874687265616420213D205254C7
:1054C0005F4E554C4C00000054030020A00000200B
:1054D0002DE9F04115460C460646FAF71BFF074634
:1054E000FFF7ACFB48B1124912A0FFF7F3FB40F203
:1054F0000D120F4919A0FFF75DF83846FAF70EFFB5
:10550000B4F5803F05D34FF48772094914A0FFF723
:1055100051F831460220FFF745FD002805D000F183
:1055200014018161416184834572BDE8F08100000E
:10553000CA66000846756E6374696F6E5B25735D9D
:10554000207368616C6C206E6F74206265207573C7
:10555000656420696E204953520A00003000000043
:1055600076616C7565203C203078313030303055B4
:10557000000000002DE9F0411E4615460F460400CC
:1055800004D1D2220C490DA0FFF714F8B5F5803FE5
:1055900004D3D32208490DA0FFF70CF83A460221A4
:1055A0002046FFF7FDFD04F11400A0616061A583B2
:1055B00066720020BDE8F081B066000873656D205A
:1055C000213D2052545F4E554C4C000076616C7565
:1055D00065203C20307831303030305500000000FC
:1055E00070B5040005D140F2B712184918A0FEF7B3
:1055F000E1FF2046FFF7BAFD022805D04FF4DC7228
:1056000012491748FEF7D6FFFAF784FE054661698E
:1056100004F11400814207D0FFF72AFB2846FAF76D
:105620007DFEFFF7B3FE09E0A08B4FF6FF718842C5
:1056300006D2401CA0832846FAF770FE002070BDF9
:105640002846FAF76BFE6FF0020070BDF2660008A4
:1056500073656D20213D2052545F4E554C4C000027
:10566000B06C00082DE9F341040005D14FF4A67297
:10567000354936A0FEF79EFF2046FFF777FD02284A
:1056800005D040F24D1230493448FEF793FFFAF747
:1056900041FE0646A08B28B1401EA0833046FAF793
:1056A0003DFE4FE0019840B1FAF734FE804600F02D
:1056B000FDFA40F26D1538B10FE03046FAF72EFED4
:1056C0006FF00100BDE8FC811F4925A0FFF702FB38
:1056D0002A461D4930A0FEF76DFFFAF71BFE07466C
:1056E000FFF7ACFA40B118492CA0FFF7F3FA2A46AD
:1056F000154929A0FEF75EFF3846FAF70FFE40462F
:10570000FAF70CFE00F0D2FA054600202863627A10
:10571000294604F11400FFF7B3FA0198002809DDC7
:1057200005F1440001AA0021044600F0ABFC20462C
:1057300000F09EFD3046FAF7F1FDFFF727FE286BDB
:105740000028BFD10020BDE7E666000873656D2024
:10575000213D2052545F4E554C4C0000B06C000867
:1057600046756E6374696F6E5B25735D2073686147
:105770006C6C206E6F7420626520757365642062A6
:1057800065666F7265207363686564756C65722009
:1057900073746172740A00003000000046756E6315
:1057A00074696F6E5B25735D207368616C6C206E2D
:1057B0006F74206265207573656420696E2049539B
:1057C000520A000008B509A0FFF784FA0AA0FFF703
:1057D00081FA12A0009005230122032112A0FFF7F5
:1057E00079FABDE8084018A0FFF774BA0A205C20D7
:1057F0007C202F0A000000002D205254202D202054
:10580000202020546872656164204F706572617455
:10581000696E672053797374656D0A004A756E204E
:105820003239203230323200202F207C205C202080
:1058300020202025642E25642E2564206275696C45
:10584000642025730A0000002032303036202D20DD
:105850003230323020436F70797269676874206229
:10586000792072742D746872656164207465616D4D
:105870000A000000014600E0491C0A78002AFBD11A
:10588000081A704710B5002A07D0034611F8014BDB
:1058900003F8014B2CB1521EF8D110BD03F8011BC7
:1058A00000E00021521EF9D110BD00002DE9F041A9
:1058B0000646C01C0F4620F0030421F00305FAF74A
:1058C00029FD8046FFF7BAF940B11B491BA0FFF73D
:1058D00001FAD222184923A0FEF76CFE4046FAF7DF
:1058E0001DFD182D21D9A5F11800A0421DD3281B9C
:1058F0001D4D18384FF4F5522C60E86022800021CD
:105900000C30C4E9010161806168002321446960B1
:105910000A8001224A804860886014A11548FFF778
:1059200029FE2868A860BDE8F0813A463146BDE806
:10593000F04111A0FFF7CEB91B69000846756E63F0
:1059400074696F6E5B25735D207368616C6C206E8B
:105950006F74206265207573656420696E204953F9
:10596000520A0000300000002800002068656170C5
:1059700000000000340300206D656D20696E6974BD
:105980002C206572726F7220626567696E20616497
:10599000647265737320307825782C20616E6420E2
:1059A000656E642061646472657373203078257855
:1059B0000A00000010B50A4900230A4C4B80184623
:1059C00004EBC002401C526012602028F8DB1F204C
:1059D000087003484B600C308B604060006010BD65
:1059E000A00000205403002010B5074CA068FDF76C
:1059F0008DFA0649401E51F8300014386060BDE849
:105A000010401C30FAF7D3BCA00000205403002043
:105A10000148406000607047B800002070472DE9E1
:105A2000FF478946DDE90C76824601461D469046D1
:105A30000120FFF7B7FA041E0DD02846FFF79AF9A8
:105A400060B103968DE8A10043464A465146204680
:105A5000FDF74AFB204604B0BDE8F0872046FFF77B
:105A600009FB0020F7E7000070B514480468FAF756
:105A700051FC05462046FDF79EFB2046FFF7F0FC53
:105A8000042084F8340004F1440000F05BFB20465D
:105A9000FFF7D8FB01280CD004F114010848FFF7E8
:105AA00030F900BFFFF772FC2846BDE87040FAF7F6
:105AB00035BC2046FFF724FBF4E70000A4000020DB
:105AC000AC00002000F002F8FCE7000070B5FAF727
:105AD00021FC0446FFF7B2F840B1164916A0FFF7C3
